:020000040000FA
:06000000C9EF04F012003C
:020006000000F8
:0600080007EF00F01200FA
:02000E00DACF47
:10001000E4FFE2CFDAFFE9CFE4FFEACFE4FFF6CF77
:10002000E4FFF7CFE4FFF5CFE4FFF3CFE4FFF4CF35
:10003000E4FFFACFE4FF00EE00F0140EE80403E35F
:10004000EECFE4FFFBD700EE14F0100EE80403E35C
:10005000EECFE4FFFBD7E652F2A42BD0F294030ECE
:100060000001A21901E1A3511AE0020EA21901E157
:10007000A3510DE0010EA21966E1A35164E1828053
:10008000829298C0D7FF96C0D6FF020E0FD0829002
:1000900082929EC0D7FFA0C0D6FF030E07D08290E9
:1000A00082829AC0D7FF9CC0D6FF010EA26FA36BBD
:1000B0004AD09EAA48D06DEC04F00001866F800EF5
:1000C000A625E96E000EA721EA6E86C0EFFF8051DB
:1000D000246E256AD20E241836E1255034E1A62B71
:1000E000000EA723060EA61921E1A7511FE1855195
:1000F000875D18E18C7081C025F0246A8251242428
:100100008C6F000E25208D6F800ED8808C57020ECC
:100110008D5783C025F0246A845124248E6F000EED
:1001200025208F6FA66BA76B876B0DD0A6C0E9FF4C
:10013000A7C0EAFFE906000EEA5A800EE926000E83
:10014000EA22EF508727E55200EE23F0100EE80474
:1001500003E3E5CFEDFFFBD700EE13F0140EE80448
:1001600003E3E5CFEDFFFBD7E5CFFAFFE5CFF4FFE3
:10017000E5CFF3FFE5CFF5FFE5CFF7FFE5CFF6FFDE
:10018000E5CFEAFFE5CFE9FFE5CFDAFF1100320E58
:10019000E66E8CEC04F0E552F10E926ED398D38AA1
:1001A000D38C190EE66EE66A7C0EE66E28EC04F03F
:1001B000E552E552E552926AFC0E946E95900C0E53
:1001C000C16E910EC06E880ED56ED76AD66AF28E59
:1001D000F28CF28A9D8A010E0001A26FA36BA66BBE
:1001E000A76B876B2C0E8C6F010E8D6FC80E8E6FF8
:1001F0008F6B8CC014F08DC015F0190E1502F3CF63
:1002000015F01402F3CF14F0F4501526040E0F0B62
:1002100005E0D89015321432E806FBE114C006F070
:1002200015C007F00BEC02F005C0AAF006C0ABF059
:1002300007C0ACF008C0ADF08EC014F08FC015F050
:10024000190E1502F3CF15F01402F3CF14F0F45089
:1002500015260C0E0B6E0C6AF3CF06F015C007F0D6
:10026000A3EC04F006C014F007C015F00BEC02F08C
:1002700005C0AEF006C0AFF007C0B0F008C0B1F0E6
:10028000146A156A800E166E470E176E1C6A600E91
:100290001D6EB40E1E6E440E1F6EC30E0A6EF50E5A
:1002A0000B6EA80E0C6E3E0E0D6EAAC005F0ABC014
:1002B00006F0ACC007F0ADC008F0B7EC02F005C026
:1002C00020F006C021F007C022F008C023F005C0CE
:1002D0000AF006C00BF007C00CF008C00DF01CC0FF
:1002E00005F01DC006F01EC007F01FC008F021EC8D
:1002F00002F005C018F006C019F007C01AF008C0D7
:100300001BF005C00AF006C00BF007C00CF008C0D7
:100310000DF014C005F015C006F016C007F017C0A8
:1003200008F020EC02F024EC03F006C090F007C0C7
:1003300091F0146A156A800E166E470E176E1C6ACD
:10034000600E1D6EB40E1E6E440E1F6E0A6A0B6A9E
:10035000800E0C6E3E0E0D6EAEC005F0AFC006F006
:10036000B0C007F0B1C008F0B7EC02F005C020F053
:1003700006C021F007C022F008C023F005C00AF033
:1003800006C00BF007C00CF008C00DF01CC005F053
:100390001DC006F01EC007F01FC008F021EC02F0DF
:1003A00005C018F006C019F007C01AF008C01BF00D
:1003B00005C00AF006C00BF007C00CF008C00DF035
:1003C00014C005F015C006F016C007F017C008F0FD
:1003D00020EC02F024EC03F006C092F007C093F08A
:1003E0000001E00E946FB10E956F91C098F0996B7B
:1003F000FF0E9015966F976B07C09AF09B6BFF0EE0
:1004000006149C6F9D6B95C09EF09F6BFF0E94151C
:06041000A06FA16BEED607
:0A0416000F9E08D00F9E07AE05D020
:10042000066C071EE86A07220F8E07C001F006C09F
:1004300000F0136A126A8E0E026E036A6FEF03F009
:100440000D7E0F6AABEC03F0C3EC03F00FB653EF75
:1004500003F00FA20AD00FAA03D00FBE53EF03F090
:100460000FA45FEF03F05CEF03F00FAA05D00FAC11
:100470005FEF03F05CEF03F00FA00AD00FA808D0E5
:100480000FBE04D00FA402D068EF03F06CEF03F0AE
:10049000126A036A0D50085C116E10E305C013F078
:1004A00006C000F007C001F008C010F00AC005F057
:1004B0000BC006F00CC007F00F3A09D00AC013F0C9
:1004C0000BC000F00CC001F00DC010F0116C0F9EBD
:1004D0000FBC0F8E10C002F00FB09BEF03F01A0E8E
:1004E00011609BEF03F0026A086A0FA408D0056C44
:1004F000061E071E081EE86A0622072208220FAC05
:1005000008D0136C001E011E021EE86A00220122A0
:100510000222046A115207E008340732063205321B
:100520000432112EF9D70550132606500022075029
:1005300001220850022204C012F00F9E02AE0BD01E
:10054000126C131E001E011E021EE86A13220022F6
:10055000012202220F8E02A006D0D8800132003282
:1005600013321232102A10C002F06FEF03F00F6A3C
:10057000ABEC03F0C3EC03F00FB653EF03F00FA2A4
:1005800005D00FB853EF03F05AEF03F00FAA05D0D0
:100590000FB053EF03F05AEF03F00FB002D00FA8E3
:1005A00002D066EF03F0036A0D500824026EE86A79
:1005B00003227E0E025EE86A035A126A136A006A18
:1005C000016A0C500702F4CF01F0F3CF00F00B509A
:1005D0000702F3501326F4500022000E01220C50A3
:1005E0000602F3501326F4500022000E01220A5096
:1005F0000702F3501226F4501322000E00220122AB
:100600000B500602F3501226F4501322000E002263
:1006100001220C500502F3501226F4501322000E52
:10062000002201220A500602F4501226000E132264
:10063000002201220B500502F4501226000E132254
:10064000002201226FEF03F00F6AABEC03F00FB64C
:100650002EEF03F00FA20ED00FB405D07F0E076E61
:10066000FF0E066E1FD0800E076E066A1BD0076A4B
:10067000066A18D00FB0FBD78F0E0860EDD77E0E3C
:100680000864F5D78E0E085C05E0D8900732063274
:10069000082AF8D70FA406D0066C071EE86A0722BE
:1006A00007AEE5D712007F0E086EFF0E076E066ECE
:1006B000056E12007F0E0FBEFF0E086E02D07F0E79
:1006C000086E800E076E066A056AF3D70FAE04D077
:1006D000800E086E076AF7D7086A076AF4D70150D8
:1006E000001013101210F8E003BEF0D701BE0CD0BA
:1006F00002500310EBE0D890123613360036013664
:100700000206D8A00306F2D70350D4E10228D2E0B3
:1007100012AE11D07F0E121402E113A00CD0132AD6
:10072000E86A0022012207E3D88001320032133246
:10073000022A0228BFE00250C9E013C005F000C041
:1007400006F00134076E0230086E0732089E0FBEB5
:10075000088E59EF03F00736083602E30F840F7E48
:1007600006E10F80086A076A066A056A120008280F
:1007700003E0D88007321200D890073202E10F82DE
:1007800012000F8612000C360D3602E30F8C0F7E1E
:1007900006E10F880D6A0C6A0B6A0A6A12000D28BE
:1007A00003E0D8800C321200D8900C32EAE10F8AB4
:0207B000120035
:0E07B200060EF66E000EF76E000EF86E0001D9
:1007C0000900F550BB6F0900F550BC6F03E1BB6732
:1007D00001D03DD00900F550B66F0900F550B76F54
:1007E0000900F550B86F09000900F550E96E0900DD
:1007F000F550EA6E090009000900F550B96F0900CB
:10080000F550BA6F09000900F6CFBDF0F7CFBEF082
:10081000F8CFBFF0B6C0F6FFB7C0F7FFB8C0F8FF1B
:100820000001B95302E1BA5307E00900F550EE6E3A
:10083000B907F8E2BA07F9D7BDC0F6FFBEC0F7FFA7
:10084000BFC0F8FF0001BB07000EBC5BBFD71200A2
:10085000D9CFE6FFDACFE6FFE1CFD9FFE2CFDAFF6B
:10086000AC6AAB6AFD0EDBB0AC88DBA202D0AC8C0C
:10087000AB8CDBB4AC8EDBA602D0AB8801D0AB8AEC
:10088000DBB8AC849E98DBBAAB86DBAC02D09D8A29
:1008900001D09D9A9E9ADBAE02D09D8801D09D9892
:1008A000FB0EDB50AF6EFB0EFC0EDBCF15F015C060
:1008B00014F0156A1450B06EAC8AAB8E949C948E72
:1008C000AC50100B04E0AC50800B01E1948CE5526D
:0A08D000E5CFDAFFE7CFD9FF1200F1
:0608DA00D9CFE6FFDACFE2
:1008E000E6FFE1CFD9FFE2CFDAFFE652F20E0001D8
:1008F000C017ABAC03D0C091ABB0C081ABB4C08566
:10090000ABB2C087AE50DF6EDF50E552E552E5CFA7
:08091000DAFFE7CFD9FF120066
:08091800FF0EE350276EEF0E05
:1009200001D0F30EE76EE72E93EF04F00C0E266E67
:10093000E76AE72E99EF04F0262E98EF04F0272EB1
:0609400091EF04F012002B
:0A094600036A026A100EE76ED890F3
:1009500006360736023603360B50025C0C5003583D
:1009600005E30B50025E0C50035A062AE72EF0D71F
:02097000120073
:0E097200000EF36E00EE00F0060E01D812002B
:10098000EA6002D0EE6AFCD7F350E9601200EE6A2A
:02099000FCD792
:0E09920015EE00F025EE00F0F86A0F9CD9EC8F
:0E09A00003F0D7EC04F0C7EC00F0FBD7120018
:0209AE00120035
:020000040030CA
:0100010008F6
:010002001EDF
:010003001EDE
:010005008377
:010006008178
:00000001FF
